:100000000C9446000C945D000C945D000C945D0013
:100010000C945D000C945D000C945D000C945D00EC
:100020000C945D000C945D000C945D000C945D00DC
:100030000C945D000C945D000C945D000C945D00CC
:100040000C945D000C945D000C945D000C945D00BC
:100050000C945D000C945D000C945D000C945D00AC
:100060000C945D000C945D000C945D000C945D009C
:100070000C945D000C945D000C945D000C945D008C
:100080000C945D000C945D000C945D0011241FBE67
:10009000CFEFD0E1DEBFCDBF11E0A0E0B1E0EEE2F6
:1000A000F1E000E00BBF02C007900D92AA31B1074A
:1000B000D9F70E948D000C9495000C940000CF930A
:1000C000DF932CE330E080509F4F12C04D9145BB31
:1000D000419140936500CFE3DFE12197F1F700C044
:1000E000000041E0E931F40789F72150304021F068
:1000F000DC01E5E1F1E0EACFDF91CF910895CF9304
:10010000DF93C0E0D0E0CE010E945F002196C131B4
:10011000D105C9F7DF91CF9108958FEF84BB8FE0B0
:0E012000809364000E947F00FDCFF894FFCF13
:10012E00000000003F063F405B7C6D4F404F5B7C04
:0A013E004F00000000080402010059
:00000001FF
